{
  "contractName": "MyContract",
  "abi": [
    {
      "constant": true,
      "inputs": [
        {
          "internalType": "uint256",
          "name": "",
          "type": "uint256"
        }
      ],
      "name": "perrosAdoptados",
      "outputs": [
        {
          "internalType": "address",
          "name": "",
          "type": "address"
        }
      ],
      "payable": false,
      "stateMutability": "view",
      "type": "function"
    },
    {
      "constant": false,
      "inputs": [
        {
          "internalType": "uint256",
          "name": "perroIndex",
          "type": "uint256"
        }
      ],
      "name": "adoptar",
      "outputs": [
        {
          "internalType": "bool",
          "name": "",
          "type": "bool"
        }
      ],
      "payable": false,
      "stateMutability": "nonpayable",
      "type": "function"
    },
    {
      "constant": true,
      "inputs": [],
      "name": "getPerrosAdoptados",
      "outputs": [
        {
          "internalType": "address[16]",
          "name": "",
          "type": "address[16]"
        }
      ],
      "payable": false,
      "stateMutability": "view",
      "type": "function"
    }
  ],
  "bytecode": "0x608060405234801561001057600080fd5b50610331806100206000396000f3fe608060405234801561001057600080fd5b50600436106100415760003560e01c80633a05b9fc146100465780633a15b57f1461008c578063e56a8412146100d2575b600080fd5b6100726004803603602081101561005c57600080fd5b8101908080359060200190929190505050610140565b604051808215151515815260200191505060405180910390f35b610094610225565b6040518082601060200280838360005b838110156100bf5780820151818401526020810190506100a4565b5050505090500191505060405180910390f35b6100fe600480360360208110156100e857600080fd5b81019080803590602001909291905050506102a6565b604051808273ffffffffffffffffffffffffffffffffffffffff1673ffffffffffffffffffffffffffffffffffffffff16815260200191505060405180910390f35b60008082101580156101535750600f8211155b61015c57600080fd5b600060019050600073ffffffffffffffffffffffffffffffffffffffff166000846010811061018757fe5b0160009054906101000a900473ffffffffffffffffffffffffffffffffffffffff1673ffffffffffffffffffffffffffffffffffffffff1614156102175733600084601081106101d357fe5b0160006101000a81548173ffffffffffffffffffffffffffffffffffffffff021916908373ffffffffffffffffffffffffffffffffffffffff16021790555061021c565b600090505b80915050919050565b61022d6102d9565b600060108060200260405190810160405280929190826010801561029c576020028201915b8160009054906101000a900473ffffffffffffffffffffffffffffffffffffffff1673ffffffffffffffffffffffffffffffffffffffff1681526020019060010190808311610252575b5050505050905090565b600081601081106102b357fe5b016000915054906101000a900473ffffffffffffffffffffffffffffffffffffffff1681565b60405180610200016040528060109060208202803883398082019150509050509056fea265627a7a7231582032c430d5afb12cf1f77a11534d1e821a8134af58ad78312def7af6fe700cc0e064736f6c63430005100032",
  "source": "pragma solidity ^0.5.0;\r\n\r\ncontract MyContract {\r\n    address[16] public perrosAdoptados;\r\n\r\n    function adoptar(uint perroIndex) public returns (bool) {\r\n        // Cpmprobación\r\n        require(perroIndex >= 0 && perroIndex <= 15);\r\n\r\n        bool adoptadoConExito = true;\r\n        \r\n        if ( perrosAdoptados[perroIndex] == address(0) ){\r\n            // msg.sender address del usuario que invoco al contrato\r\n            perrosAdoptados[perroIndex] = msg.sender;\r\n        } else {\r\n            adoptadoConExito = false ;\r\n        }\r\n\r\n        return adoptadoConExito;\r\n    }\r\n\r\n    function getPerrosAdoptados() public view returns (address[16] memory) {\r\n        return perrosAdoptados;\r\n    }\r\n\r\n\r\n}\r\n",
  "sourcePath": "D:\\Master\\AIW\\bloque2\\blockchain\\bnb\\contracts\\MyContracts.sol",
  "compiler": {
    "name": "solc",
    "version": "0.5.16+commit.9c3226ce.Emscripten.clang"
  },
  "schemaVersion": "3.4.4",
  "updatedAt": "2022-02-11T19:29:37.809Z",
  "networkType": "ethereum",
  "devdoc": {
    "methods": {}
  },
  "userdoc": {
    "methods": {}
  }
}